:0400000010EF09F004
:08000800046ED8CF05F0E0CF33
:1000100006F00001E9CF0CF0EACF07F0E1CF08F0DD
:10002000E2CF09F0D9CF0AF0DACF0BF0F3CF12F01C
:10003000F4CF13F0FACF14F000C00EF001C00FF0AF
:1000400002C010F003C011F09DA02AEF00F09EB096
:100050005AEF00F00EC000F00FC001F010C002F027
:1000600011C003F00CC0E9FF07C0EAFF078E08C00B
:10007000E1FF09C0E2FF0AC0D9FF0BC0DAFF12C0DE
:10008000F3FF13C0F4FF14C0FAFF045006C0E0FFF2
:1000900005C0D8FF1000F2CF0DF0F29EF76AB00F46
:1000A000F66E000EF7220900F5500DBEF28E12001A
:1000B000280C01060B0ECF6EDB0ECE6E1850020818
:1000C00002E3182A0AD0186A19503A0802E3192ADA
:1000D00004D0196A1A2AD8B41B2A9E902AEF00F07D
:1000E00020204F56454E20434F4E54524F4C202017
:1000F00000002020202A2A562D312E302A2A2020A6
:1001000020200000204649582054454D504552417A
:100110005455524520005052452D48454154494EB2
:10012000473A20256C7500004649582054494D45F2
:1001300020284D494E29200048454154494E473A10
:1001400020256C750000204649582054454D5045E7
:10015000524154555245200048454154494E473A72
:1001600020256C75000020205052452D3E48454109
:1001700054494E472020000020256C7525634320FC
:100180002D3E20256C752563432000002020505211
:100190004553532020454E54455220200000202036
:1001A000544F2020434F4E54494E554520200000C7
:1001B0002020202048454154494E4720202020201F
:1001C0000000256C75256343202D3E20256C752588
:1001D000634320002020202046494E4953482020D8
:1001E000202020002020202020256C75256343201E
:1001F000202020200000EA6A4E0EE96EEF500DE04C
:10020000020E016E006A002EFED7012EFBD7970E5C
:10021000006E002EFED7EF2EF3D7120047B002D0AB
:100220008A9601D08A86939647B202D08A9801D0E6
:100230008A88939847B402D08A9A01D08A8A939A7E
:1002400047B602D08A9C01D08A8C939C00008A8495
:10025000939400D000D08A9493941200486A9386B5
:10026000000E81B6010E48129388000E81B8010E6F
:10027000006ED890003600504812938A000E81BA62
:10028000010E006E00360036FC0E001600504812BB
:10029000938C000E81BC010E006E003600360036D5
:1002A000F80E00160050481248C001F01200938664
:1002B0009388938A938C8A82939200008A84939481
:1002C0000000CCDF01C047F08A94939400008A8438
:1002D000939400D0C3DF01C046F08A949394939620
:1002E0009398939A939C4738006EF00E0016005036
:1002F0004610016E82EF01F09394939093928A904E
:100300009390D5D701C046F001BEFBD7445202E11D
:100310008A9001D08A80939000008A929392000084
:100320008A9493944538466E0F0E461646C047F0A1
:1003300075DF45500F0B466E476E70DF12009396C7
:100340009398939A939C9394939093928A9093907A
:100350008A9293928A9493940F0E4E6E4CDF010E04
:10036000336E3350030808E3030E476E57DF050E64
:100370004E6E41DF332AF5D7020E476E4FDF050E72
:100380004E6E39DF336A335003080EE3036A33508D
:10039000F2CF34F0F29E7FDE34BEF28E346E446AC9
:1003A000456EAADF332AEFD75EEF09F033363336D6
:1003B0003336F80E3316380E331633504009376E85
:1003C000446A456E99DF366A3650070812E335C035
:1003D00003F03450342AD8B4352AE96E03C0EAFF5A
:1003E000EFCF37F0010E446E37C045F085DF362A77
:1003F000EBD76BEF09F03850100805E0396E363650
:100400003736392EFCD79484949294988B98949A8A
:100410008B9A38C039F08B88070E3A6E3A2EFED789
:1004200037AE8B9237BE8B82363637368B98060EB8
:100430003A6E3A2EFED70136023682A4019082B47B
:100440000180392EE8D78B8A2BEF02F0376A366AA3
:10045000100E386ED0D7015002C021F001C020F03C
:10046000226A20B4222AF80E2016219E2132203240
:1004700021322032213220321F0E21162132203229
:10048000213220323F0E2116010E4E6EB4DE1200D4
:10049000412C01D003D0400E426E01D0426A010EC1
:1004A000405C422642508009436E446A456E24DF18
:1004B00012003F50070A07E00B0A0AE0060A10E0A4
:1004C000020A14E018D0010E406E416EE1DF18D030
:1004D000446A010E456E10DF020E4E6E8CDE10D0A7
:1004E000010E406E020E416ED3DF0AD0446A100E38
:1004F000456E02DF05D0010E446E3FC045F0FCDEC4
:1005000012000900F5520CE0F6CF36F0F7CF37F0C5
:10051000F5CF3FF0CEDF36C0F6FF37C0F7FFF1D79B
:100520001200166A176A186A196A1B6A1A6A1D6A23
:100530001C6A1E6A1F6A216A206A226A0C0E3F6EBC
:10054000B8DFE00EF66E000EF76EDBDF010E406ED8
:10055000020E416E9DDFF20EF66E000EF76ED1DFD9
:10056000080E336EFA0E4E6E46DE332EFBD76FEF5B
:1005700009F00900F6CF37F0F7CF38F0F5CF3FF0AC
:1005800098DF37C0F6FF38C0F7FF362EF2D71200DB
:10059000EACF3EF0E9CF3DF03738F009396E392621
:1005A000E20F3A6E320F3C6E37500F0B3A263A2666
:1005B0003C26E90F3B6E3B263B2636380F0B3B268D
:1005C0003C263B363C363C1E3C3636500F0B3C2618
:1005D0003936070E386E0A0E3B063C26FDE33A0616
:1005E0003B26FDE339063A26FDE338063926FDE3CE
:1005F000EA6A380EE96E070E3D143D9CE9263C0E72
:10060000E95CD8B43D8CEF50006E08E13DBC06D0EB
:100610003DB813D03DB602D0200E03D03D863D98A4
:10062000300E0026EACF37F0E9CF36F000C03FF0B9
:1006300040DF37C0EAFF36C0E9FFEE503DACDFD700
:100640001200D8B203D0EA6A590EE96E006A016A54
:10065000026A036A596A5A6A5B6A5C6A58505710A0
:10066000561055102CE0200E5D6ED8905136523643
:100670005336543659365A365B365C3658505C5CC5
:1006800008E157505B5C05E156505A5C02E1555059
:10069000595C0FE35550595E5650D8A0563C5A5EEF
:1006A0005750D8A0573C5B5E5850D8A0583C5C5E71
:1006B000D88000360136023603365D2ED6D759C0B3
:1006C000EFFF5AC0ECFF5BC0ECFF5CC0ECFF120018
:1006D000016A026A006A036A4C5002E14B5018E05A
:1006E000100E4D6ED89049364A36003603364C50BF
:1006F000035C02E14B50005C07E34B50005ED8A066
:1007000003064C50035ED880013602364D2EEAD7E0
:100710001200556A566A010E576EDA6AD96A5A6A29
:100720004D0E596EEA6A510EE96E5AC0E2FF59C089
:10073000E1FF57C058F0D890E550EE02F350552233
:10074000F4505622582EF7D755C0DEFF56C055F04C
:10075000566AD8B0562A592AD8B45A2A572A575016
:100760000508E0E16FEF04F0090E4E5E0BE3EA6A64
:100770004E0EE96ED890EF32EF5004E001D0000049
:10078000EF2EFDD7DEEF03F04D6A4A504D5C05E2D7
:10079000FA0E4E6E30DD4D2AF8D749C04EF02BDDF3
:1007A0004D6A4C504D5C07E2A60E006E002EFED73F
:1007B00000004D2AF6D74BC04EF0D6D71200D89283
:1007C000546A0F0E536E420E526E400E516E586AAE
:1007D000576A38C056F037C055F033DF03C04CF0CD
:1007E00002C04BF001C04AF000C049F0D8904C3232
:1007F0004B324A3249320A0E495C3B6E000E4A586F
:100800003C6E000E4B583D6E000E4C583E6ED8921A
:100810003EC054F03DC053F03CC052F03BC051F0DC
:10082000586A576A030E566EE80E556E0ADF01C00D
:1008300040F000C03FF040C04AF03FC049F04C6A71
:10084000FA0E4B6E45DF01C044F040C04AF03FC095
:1008500049F04C6AFA0E4B6E3BDF00C045F0D8827F
:10086000EA6A490EE96E3EC054F03DC053F03CC008
:1008700052F03BC051F0586A576A030E566EE80EAC
:10088000556EDFDE4AC042F049C041F042C04AF036
:1008900041C049F04C6AFA0E4B6E1ADF01C043F0BA
:1008A00042C04AF041C049F04C6AFA0E4B6E10DF6C
:1008B00000C046F04C6A4B6A3AC04AF039C049F071
:1008C0004CC050F04BC04FF03AC04EF039C04DF024
:1008D000546A536A030E526EE80E516E1AD703C063
:1008E0004CF002C04BF001C04AF000C049F0D89271
:1008F000546A0F0E536E420E526E400E516E586A7D
:10090000576A38C056F037C055F09BDE03C050F030
:1009100002C04FF001C04EF000C04DF0D8924CC064
:1009200054F04BC053F04AC052F049C051F003C0DC
:1009300058F002C057F001C056F000C055F081DEFB
:1009400001C048F000C047F048C003F04750D8B499
:1009500048064706496E03C04AF0495202E14A522E
:1009600019E045C049F044C04AF046C04BF043C0CE
:100970004CF00ADFF90E926E898445C049F044C0FC
:100980004AF046C04BF043C04CF0FEDEF90E926ECA
:100990008994DAD7120036520BE1010E386EF40E4C
:1009A000376E3A6A7D0E396E0ADF140E4E6E23DC06
:1009B000362C10D0010E386E4A0E376E3A6A640E2D
:1009C000396EFDDE010E386EEE0E376E3A6A500E4D
:1009D000396EF5DE3650020813E1020E386E580EFD
:1009E000376E3A6A7D0E396EEADE640E4E6E03DCB7
:1009F000020E386E580E376E3A6A7D0E396EDFDEA3
:100A00003650030838E1020E386E580E376E3A6AD7
:100A1000E10E396ED4DE020E376EC80E4E6EFBEC60
:100A200000F0372EFAD7020E386E580E376E3A6A3B
:100A3000E10E396EC4DE020E376EC80E4E6EFBEC50
:100A400000F0372EFAD7020E386E580E376E3A6A1B
:100A5000E10E396EB4DE020E376EC80E4E6EFBEC40
:100A600000F0372EFAD7020E386E580E376E3A6AFB
:100A7000E10E396EA4DE3650040809E1020E386E2C
:100A8000580E376E030E3A6EE80E396E98DE12007D
:100A9000C282C2B2FED7C3CF1CF0C4CF1DF01D521C
:100AA00003E11C5071080DE21D520BE11C50E208DD
:100AB00008E31F5206E1010E1E6E1F6E366A6BDFE1
:100AC0006AD01D50000815E2FF0A03E11C501B0804
:100AD00010E21D5001080DE303E11C508C0809E3EE
:100AE0001F5207E1020E1E6E010E1F6E366A53DFA3
:100AF00052D01D50000815E2FF0A03E11C50C50842
:100B000010E21D5002080DE303E11C50360809E312
:100B10001F5207E1030E1E6E010E1F6E366A3BDF89
:100B20003AD01D50010815E2FF0A03E11C506F087E
:100B300010E21D5002080DE303E11C50E00809E338
:100B40001F5207E1040E1E6E010E1F6E366A23DF70
:100B500022D01D50020815E2FF0A03E11C501908BB
:100B600010E21D5003080DE303E11C508A0809E35D
:100B70001F5207E1050E1E6E010E1F6E366E0BDF53
:100B80000AD01E6A1D50020806E2FF0A03E11C504B
:100B9000E80801E21F6A1EC001F012000C0E3F6E51
:100BA00088DC040EF66E010EF76EABDC010E406EB3
:100BB000020E416E6DDC160EF66E010EF76E0D0E16
:100BC000366ED7DC100EE96E26C037F025C036F041
:100BD000DFDC5EDF01C033F0332C04D0252AD8B42B
:100BE000262A1CD03350020805E12550D8B4260629
:100BF000250614D03350030805E10A0E255E000EC9
:100C0000265A0CD03350040805E10A0E2526000EA2
:100C1000262204D033500508D8B40FD0265001083E
:100C200007E2FF0A03E12550580802E2266A256A16
:100C3000640E4E6EFBEC00F0B1D70C0E3F6E39DC4B
:100C4000280EF66E010EF76E5CDC010E406E020E91
:100C5000416E1EDC380EF66E010EF76E090E366E12
:100C600088DC100EE96E28C037F027C036F090DC23
:100C70000FDF01C034F0342C04D0272AD8B4282A3E
:100C80001CD03450020805E12750D8B428062706A6
:100C900014D03450030805E10A0E275E000E285ACE
:100CA0000CD03450040805E10A0E2726000E282235
:100CB00004D034500508D8B40FD02850010807E2FA
:100CC000FF0A03E12750580802E2286A276A640EE7
:100CD0004E6EFBEC00F0B1D70C0E3F6E59EC02F0FB
:100CE000460EF66E010EF76E0CDC010E406E020E23
:100CF000416E48EC02F0580EF66E010EF76E090ECA
:100D0000366E37DC100EE96E2AC037F029C036F097
:100D10003FDCBEDE01C035F0352C04D0292AD8B422
:100D20002A2A1CD03550020805E12950D8B42A06D9
:100D3000290614D03550030805E10A0E295E000E7D
:100D40002A5A0CD03550040805E10A0E2926000E57
:100D50002A2204D035500508D8B40FD02A500108F3
:100D600007E2FF0A03E12950580802E22A6A296AC9
:100D7000640E4E6EFBEC00F0AFD770EF09F036BE9C
:100D800007D03650000804E236C001F008D007D082
:100D9000365036AE03D0000ED8803654016EDBEFED
:100DA00006F026EC02F020C035F03350355C176EAB
:100DB00017C036F0E4D701C017F01750000809E259
:100DC000345207E13550335C04E2F90E926E899299
:100DD0000BD01750040808E2345203E13350355C5D
:100DE00003E2F90E926E8982120026EC02F025527F
:100DF00003E12652D8B4FAD026C034F025C033F02F
:100E0000D0DF0C0E3F6E59EC02F0660EF66E010E4E
:100E1000F76E81EC02F0010E406E020E416E48EC5E
:100E200002F0200E3F6E59EC02F0100EE96E21C068
:100E300037F020C036F0C8EC02F0010E3F6E59ECDE
:100E400002F07E0EF66E010EF76E050E366EB9ECF0
:100E500002F0100EE96E26C037F025C036F0C8EC5F
:100E600002F0010E3F6E59EC02F0430E3F6E59EC5A
:100E700002F0200E3F6E59EC02F01750000808E215
:100E80002650215C05E303E12050255CD8A00DD05D
:100E9000FFDD0150050804E1F90E926E899205D03C
:100EA000C80E4E6EFBEC00F0A7D70C0E3F6E59EC4F
:100EB00002F08C0EF66E010EF76E81EC02F0010E60
:100EC000406E020E416E48EC02F09E0EF66E010E70
:100ED000F76E81EC02F0DCDD01500508D8B486D055
:100EE000040E366E58DDD4DD01500508D8B47ED02E
:100EF000040E336EFA0E4E6EFBEC00F0332EFAD772
:100F0000C7DD01500508D8B471D0040E336EFA0E57
:100F10004E6EFBEC00F0332EFAD7BADD0150050817
:100F2000D8B464D0040E336EFA0E4E6EFBEC00F0B3
:100F3000332EFAD7ADDD01500508D8B457D0040ED2
:100F4000336EFA0E4E6EFBEC00F0332EFAD7A0DDB6
:100F500001500508D8B44AD0040E336EFA0E4E6E16
:100F6000FBEC00F0332EFAD793DD01500508D8B41E
:100F70003DD0040E336EFA0E4E6EFBEC00F0332EB5
:100F8000FAD786DD01500508D8B430D0040E336E90
:100F9000FA0E4E6EFBEC00F0332EFAD779DD0150DD
:100FA0000508D8B423D0040E336EFA0E4E6EFBEC57
:100FB00000F0332EFAD76CDD01500508D8B416D0F6
:100FC000040E336EFA0E4E6EFBEC00F0332EFAD7A1
:100FD0005FDD01500508D8B409D0040E336EFA0E57
:100FE0004E6EFBEC00F0332EFAD75FD7295202E1A8
:100FF0002A525BE0275202E1285257E0186A196A28
:101000001B6A1A6A1B50285C4EE303E127501A5CE6
:101010004AE22AC034F029C033F0C3DE0C0E3F6E22
:1010200059EC02F0B00EF66E010EF76E81EC02F094
:10103000010E406E020E416E48EC02F0100EE96E99
:1010400021C037F020C036F0C8EC02F0010E3F6E30
:1010500059EC02F0C70EF66E010EF76E050E366EF5
:10106000B9EC02F0100EE96E2AC037F029C036F054
:10107000C8EC02F0010E3F6E59EC02F0430E3F6ED9
:1010800059EC02F0200E3F6E59EC02F001DD0150E8
:10109000050804E1F90E926E899207D0C80E4E6ED3
:1010A000FBEC00F001D001D0ADD771EF09F0F90EE3
:1010B000926E899226EC02F00C0E3F6E59EC02F013
:1010C000D40EF66E010EF76E81EC02F0010E406E4A
:1010D000020E416E48EC02F0E40EF66E010EF76E61
:1010E000050E366EB9EC02F0100EE96E21C037F035
:1010F00020C036F0C8EC02F0010E3F6E59EC02F051
:10110000EE0EF66E010EF76E060E366EB9EC02F0BC
:10111000030E366E40DCBCDC01500508D8B47ED02E
:10112000040E336EFA0E4E6EFBEC00F0332EFAD73F
:10113000AFDC01500508D8B471D0040E336EFA0E3E
:101140004E6EFBEC00F0332EFAD7A2DC01500508FE
:10115000D8B464D0040E336EFA0E4E6EFBEC00F081
:10116000332EFAD795DC01500508D8B457D0040EB9
:10117000336EFA0E4E6EFBEC00F0332EFAD788DC9D
:1011800001500508D8B44AD0040E336EFA0E4E6EE4
:10119000FBEC00F0332EFAD77BDC01500508D8B405
:1011A0003DD0040E336EFA0E4E6EFBEC00F0332E83
:1011B000FAD76EDC01500508D8B430D0040E336E77
:1011C000FA0E4E6EFBEC00F0332EFAD761DC0150C4
:1011D0000508D8B423D0040E336EFA0E4E6EFBEC25
:1011E00000F0332EFAD754DC01500508D8B416D0DD
:1011F000040E336EFA0E4E6EFBEC00F0332EFAD76F
:1012000047DC01500508D8B409D0040E336EFA0E3D
:101210004E6EFBEC00F0332EFAD749D772EF09F08F
:10122000F86AD09E078E700ED36ED350B8960C0E0F
:10123000AF6EA20EAC6E900EAB6E948494929498A6
:101240008B98949A8B9A166A176A186A196A1B6A9D
:101250001A6A1D6A1C6A1E6A1F6A216A206A226A4B
:10126000246A236A266A256A286A276A2A6A296AFA
:10127000C150C00B0F09C16E070EB46E0F0E2B6E5E
:10128000090E2C6E0F0E2D6E2E6A2F6A306A316A8F
:10129000326A850ECD6EC150C00B0E09C16EC050B2
:1012A000C00B0709C06EC08EC2800B0ECF6EDB0E66
:1012B000CE6E9D80C00EF2129FEF01F0000E016E07
:1012C000C250C30B0110C26E010E336E356A2B0E75
:1012D000346ED6EF01F026EC02F091EF02F05ED40E
:1012E00084D5E5D6040E336EFA0E4E6EFBEC00F09C
:0812F000332EFAD7F0D70300FA
:020000040030CA
:0E0000000708181E0005810000C00FE00F4029
:00000001FF
;PIC18F2550
;CRC=D269  CREATED="29-abr.-20 16:36"
